:040000006F20807479
:10000400000000000000000090000020400B0020D1
:10001400A9BDF9F3900000200000000000000000DA
:10002400900000209000002000000000000000006C
:10003400900000200000000090000020000000005C
:10004400900000204A0C0020900000209000002026
:1000540090000020900000209000002090000020DC
:1000640090000020900000209000002090000020CC
:10007400340C00209000002090000020900000200C
:1000840090000020900000209000002090000020AC
:1000940001A04111B7170040985F3AC6945F3247F8
:1000A400E39CE6FE324541018280411181460146CE
:1000B4008145114506C6EF00D045B72700401147DA
:1000C4002383E780B7F700E003A707D16D9B23A83C
:1000D400E7D003A707D15D9B23A8E7D07300501096
:1000E40001000100B2404101828041118146014674
:1000F4008145114506C6EF00D041B727004011479E
:100104002383E780B717004003C7E70203C6E70469
:1001140083D7870391661377F70F1366360063E579
:10012400D700719B13671700F3260080A18A938779
:10013400818789CAF326008023ACD1869443DD9A53
:100144007390068001000100B71600409305700506
:100154002380B604930580FA2380B60401000100CD
:100164002382060223800604F32500809443A18A97
:10017400CD8E7390068023AC018601000100F32626
:100184000080A18A89CAF326008023ACD1869443D7
:10019400DD9A7390068001000100B71600409305B4
:1001A40070052380B604930580FA2380B604010009
:1001B40001002387E6022387C60423800604F3266E
:1001C40000809843218B558F7310078023AC0186E0
:1001D4000100010073270080218B09CB7327008065
:1001E40023ACE18698435D9B7310078001000100F6
:1001F40037170040930670052300D704930680FA4E
:100204002300D704010001008346B70493E60602E5
:10021400A305D70423000704F32600809843218B09
:10022400558F7310078023AC01860100010037F756
:1002340000E0832607D193E646002328D7D08326FF
:1002440007D1DD9A2328D7D0730050100100010094
:1002540073270080218B09CB7327008023ACE186B0
:1002640098435D9B7310078001000100371700401D
:10027400930670052300D704930680FA2300D7045D
:10028400010001008346B70493F6F60DA305D704D5
:1002940023000704732700809C43A18BD98F73909C
:1002A400078023AC018601000100B2404101828035
:1002B4000111B7F5070026CA8146AA840A86E1051A
:1002C400194506CE22CC4AC802C023120100EF0011
:1002D4005024B717004003C7E70413673700F32718
:1002E4000080A18B1384818789CBF327008023AC02
:1002F400F1861C40DD9B7390078001000100B71755
:100304000040930670052380D704930680FA238067
:10031400D704010001002382070223800704F32687
:1003240000801C40A18BD58F7390078023AC01867D
:1003340001000100F3270080A18B89CBF327008003
:1003440023ACF1861C40DD9B739007800100010003
:10035400B7170040930670052380D704930680FAEC
:100364002380D704010001002387E70423800704C6
:10037400F32600801840218B558F7310078023AC1F
:10038400018601000100B7F600E003A706D1136758
:10039400470023A8E6D003D50702E5779107137534
:1003A4000560458D5D8D420541810100F327008084
:1003B400A18B89CBF327008023ACF1861C40DD9B05
:1003C4007390078001000100B71700401307700500
:1003D4002380E704130780FA2380E7040100010067
:1003E40003C7F70013670704A387E70003C7B7042D
:1003F40013670702A385E7042390A7022380070459
:10040400732700801C40A18BD98F7390078023AC85
:10041400018601000100B7F4070037F900E0E104A8
:10042400832709D1DD9B2328F9D0730050100100E4
:1004340001001305C012EF00807C81463000A685C0
:10044400194502C423160100EF00B00C224782476D
:10045400E318F7FCF3270080A18B89CBF3270080F6
:1004640023ACF1861C40DD9B7390078001000100E2
:10047400B7170040130770052380E704130780FAB9
:100484002380E7040100010003D7070246074583E0
:100494002390E70223800704732700801C40A18B6C
:1004A400D98F7390078023AC018601000100F327E4
:1004B4000080A18B89CBF327008023ACF1861C40FC
:1004C400DD9B7390078001000100B71700401307FC
:1004D40070052380E704130780FA2380E7040100F2
:1004E400010003C7B7041377F70DA385E70423803E
:1004F4000704732700801C40A18BD98F7390078059
:1005040023AC0186010001005145D52DF24062441F
:10051400D244424905618280411126C28146014686
:10052400AA848145114506C622C4EF00807E371790
:1005340000408347E7028346E704035787031166B5
:1005440093F7F70F93E636006365C700F19B93E7D3
:10055400170073270080218B1384818709CB7327AD
:10056400008023ACE18618405D9B73100780010076
:10057400010037170040130670052300C704130653
:1005840080FA2300C70401000100230207022300AC
:100594000704732600801840218B518F7310078045
:1005A40023AC01860100010073270080218B09CB55
:1005B4007327008023ACE18618405D9B731007808D
:1005C4000100010037170040130670052300C7041B
:1005D400130680FA2300C704010001002307F70271
:1005E4002307D70423000704732700801C40A18B32
:1005F400D98F7390078023AC018601000100130595
:100604005002992237F700E0832707D193E7470088
:100614002328F7D0F3270080A18B89CBF327008010
:1006240023ACF1861C40DD9B739007800100010020
:10063400B7170040130770052380E704130780FAF7
:100644002380E7040100010003C7F70013670704D0
:10065400A387E70023800704732700801C40A18B35
:10066400D98F7390078023AC018601000100F32722
:100674000080A18B89CBF327008023ACF1861C403A
:10068400DD9B7390078001000100B717004013073A
:1006940070052380E704130780FA2380E704010030
:1006A40001002567D98C23909702238007047327C0
:1006B40000801C40A18BD98F7390078023AC0186E6
:1006C4000100010037F700E0832707D1DD9B2328D1
:1006D400F7D07300501001000100814601468145A6
:1006E4001145052DF3270080A18B89CBF3270080CA
:1006F40023ACF1861C40DD9B739007800100010050
:10070400B7170040130770052380E704130780FA26
:100714002380E7040100010003C76704136717007F
:100724002383E70423800704732700801C40A18BE4
:10073400D98F7390078023AC018601000100B24079
:10074400224492444101828073270080218B938745
:10075400818709CB7327008023ACE18698435D9B96
:1007640073100780010001003717004093067005DD
:100774002300D704930680FA2300D7040100010064
:100784008346B70493F6F60DA305D70423000704A4
:10079400732600809443A18AD18E7390068023AC83
:1007A400018601000100937605026384061803475D
:1007B400A700118B25E773270080218B09CB7327B2
:1007C400008023ACE18698435D9B73100780010091
:1007D400010037170040930670052300D7049306E1
:1007E40080FA2300D704010001008346A70093E6A2
:1007F40046002305D70023000704F326008098430E
:10080400218B558F7310078023AC018601000100F2
:100814001307004B010001007D176DFF7327008053
:10082400218B09CB7327008023ACE18698435D9B21
:10083400731007800100010037170040930670050C
:100844002300D704930680FA2300D7040100010093
:100854007D892314A7000100010001000100230089
:100864000704F32600809843218B558F731007806B
:1008740023AC01860100010073270080218B09CB82
:100884007327008023ACE18698435D9B7310078037
:100894000100010037170040930670052300D704B8
:1008A400930680FA2300D70401000100010001002F
:1008B400B726004013061005A383C680230007044F
:1008C400F32600809843218B558F7310078023AC47
:1008D40001860100010073270080218B09CB732757
:1008E400008023ACE18698435D9B73100780010070
:1008F400010037170040930670052300D7049306C0
:1009040080FA2300D704010001008346B70493E66C
:100914000608A305D70423000704732700809C431B
:10092400A18BD98F7390078023AC0186010001004D
:10093400828093760504638B06140347A700418BDA
:1009440025E773270080218B09CB7327008023AC14
:10095400E18698435D9B73100780010001003717FF
:100964000040930670052300D704930680FA230001
:10097400D704010001008346A70093E6060123057E
:10098400D70023000704F32600809843218B558F5A
:100994007310078023AC0186010001001307007D5A
:1009A400010001007D176DFF73270080218B09CBA7
:1009B4007327008023ACE18698435D9B7310078006
:1009C4000100010037170040930670052300D70487
:1009D400930680FA2300D704010001009376F50101
:1009E40093E606042314D70001000100010001006E
:1009F40023000704F32600809843218B558F73103E
:100A0400078023AC01860100010013076004631012
:100A1400E50473270080218B09CB7327008023AC66
:100A2400E18698435D9B731007800100010037172E
:100A34000040930670052300D704930680FA230030
:100A4400D70401000100B72600400946B5B5732755
:100A54000080218B09CB7327008023ACE186984367
:100A64005D9B731007800100010037170040930657
:100A740070052300D704930680FA2300D7040100ED
:100A84000100B7260040130620053DB573270080FA
:100A9400218B09CB7327008023ACE18698435D9BAF
:100AA400731007800100010037170040930670059A
:100AB4002300D704930680FA2300D7040100010021
:100AC4008356870093E6060C2314D700C5BB411157
:100AD400814601468145114506C6252CF327008031
:100AE400A18B9386818789CBF327008023ACF18681
:100AF4009C42DD9B7390078001000100B717004002
:100B0400130770052380E704130780FA2380E704A2
:100B14000100010003C76704136717002383E70478
:100B240023800704732700809C42A18BD98F739084
:100B3400078023AC018601000100B240410182809C
:100B44008146014681451145E922F3270080A18BA6
:100B54001387818789CBF327008023ACF1861C435C
:100B6400DD9B7390078001000100B71700409306D6
:100B740070052380D704930680FA2380D7040100EC
:100B84000100FD562396D70223800704F326008034
:100B94001C43A18BD58F7390078023AC0186010081
:100BA4000100F3270080A18B89CBF327008023ACBD
:100BB400F1861C43DD9B7390078001000100B71789
:100BC4000040930670052380D704930680FA23809F
:100BD400D7040100010083C6670493E6160023834B
:100BE400D70423800704F32600801C43A18BD58FF0
:100BF4007390078023AC01860100010001A0BD476A
:100C04003305F50201007D1575FD8280411122C472
:100C140026C206C6AA84014463179400B240224443
:100C240092444101828005041305803E4204C13F81
:100C34004180DDB7B7170040130700032388E7029C
:100C4400854723A6F18C73002030730020304111B6
:100C540006C6AD25FDBF2303048015472303E480A6
:100C640001002302A480828083076480E3CE07FE10
:100C740023030480828083076480E3CE07FE034558
:100C84004480828083076480E3CE07FE2302A4802D
:100C94008280411126C44AC24EC006C61377F50BA2
:100CA400AD47AA892E8995446306F700194565372F
:100CB400653F8D444E854537FD59FD1463983401D5
:100CC400B240A2441249824941018280135509016C
:100CD4001375F50F453F2209CDB7011126CC06CE79
:100CE400B704080051371545BD37713769372AC62F
:100CF400A53F32459377150089EB136515001375ED
:100D0400F50FF240E24405618280FD14E9FC0145DF
:100D1400CDBF397126DC4ADA4ED852D656D45AD2CF
:100D24005ED006DE62CE66CCB7E700E07D5783AACC
:100D3400070022C603AA470023A0E71823A2E71846
:100D4400B7170040130770052380E704130780FAE0
:100D54002380E70483C74704930B75FFB684E20737
:100D640093FBFB0F8546AA892E8B328937240040DA
:100D7400E187015763FA76016308D50089461307B2
:100D840000026313D5000157D98F93F7F70FB71CEF
:100D940000402382FC0411472303E4801305F00F71
:100DA4005D3D094CD135636D7C11B7050700DA95BB
:100DB40037870700795563F2E504B3879500636EBE
:100DC400F702370B0800A94733EB65016399F9066D
:100DD40089E48144513D26850DA0DA850945553DB8
:100DE40005090345F9FFFD14050B693D81C493779B
:100DF400FB0FFDF7DD3569FD7D55B717004013077F
:100E040070052380E704130780FA2380E70403C7EF
:100E14004704418B2382E704F250B7E700E023A0A4
:100E2400571123A24711E25432445259C259325A3B
:100E3400A25A125B825B724CE24C21618280A5470C
:100E44006395F90685691309F00FB3069900B37425
:100E54002B01B6941349F9FFB3749900856B337968
:100E64006901416B9387F9FFB3F7270199E363FCA9
:100E7400340193D94900C147E3E637FF99BF0569B7
:100E8400C1697D19D9B71305800D638869011305FC
:100E940000026384790113051008CA85DD3B353DE2
:100EA40021DD4E99B3843441D9B7DA852D45D53344
:100EB400CA94E30099F205097D3BA30FA9FED5BFAF
:100EC4009387F9FF93F7F70F6361FC0C83C71C0446
:100ED40013073008631FF70437070800636BEB043C
:100EE400B3079B00B706100063F5D704334BEB0040
:100EF40089476393F9068980D549E38C04ECDA8544
:100F04000945413B11090327C9FF91472320E48088
:100F140003076480E34E07FE23033481FD17EDFBD2
:100F2400FD14110B81C49377FB0FE9FF7D3371F539
:100F3400E1B5B717004003C75704B7070800137794
:100F4400070219E3B78707007955E378FBEA33070B
:100F54009B00E3FFE7F855B58547E382F9F2DA85AC
:100F64002D45053B9389F4FFE38504E6293393F784
:100F7400390091EB83260480032709009307490075
:100F8400E39AE6E43E89CE84F1BFB5476396F9005F
:100F94001305900BC93135BDB1471305B00AE38B76
:100FA400F9FE99476391F904B7050800B365BB00DE
:100FB4002D45C53181448D4BA14975396396740122
:100FC400832704802320F9008504E39834FF8327D2
:100FD400048013172B01635507002312F900D5BBB6
:100FE4002322F900FDB39D476399F9028145130556
:100FF400B0044531BD442320090023220900FD59D2
:101004009D3993F77400CA9703C70700FD14398DFF
:101014002380A700E39634FF6DBBA1476392F904D4
:101024006D398144630D0B008D479304C00363083D
:10103400FB009304000563048B01930440041375BF
:10104400C507E30895D819453931393905452131A2
:1010540026850D3909453D314931E31C05D669BB67
:1010640091476399F90013056006F536F53E1305BB
:1010740090090DB7E38F09D4F154A9BB19CD91CDD3
:1010840009CE81473387F500834607003307F5000F
:1010940085072300D700E317F6FE828019C991C99A
:1010A40009CA910583A7C5FF11057D16232EF5FEF8
:1010B400C5BF828001C919C62A960505A30FB5FECE
:1010C400E31DA6FE828081473307F500030707006E
:1010D40019E33E8582808507C5BF01112E8626CA85
:1010E400AA84131506019305F004418122CC06CE8F
:1010F40032C6EF00B0562A8401C53246A685BD3FEC
:101104002285F2406244D24405618280854715C13C
:101114008DC105C28147B306F5003387F50083C648
:101124000600034707006398E6008507E315F6FE0B
:1011340085473E8582808147EDBF9307F6FFBE95C4
:101144002A966313C5008280FD1583C71500050523
:10115400A30FF5FEFDB7AA87014581CF09CE3E96C0
:10116400850703C7F7FF6317B700E39BC7FE054571
:10117400828082800145828079719737000093874D
:10118400E76122D4804306D626D24AD04ECE52CC32
:1011940056CA5AC85EC679C0B7C4C901014B97394B
:1011A40000009389295F9384F437173A0000130AE7
:1011B4002A5F973A0000938A2A59173900001309C5
:1011C40069628357240095E35C44631D0B00173761
:1011D40000002325F75C832BC4002285EF003055E3
:1011E4005E84B9A82326FB00FDB783A70900829774
:1011F4001C443307F5406376F500032749001D8F2F
:101204002A9763E2E4089737000023A7075483551D
:10121400240003450400974000E0E780207F5C4001
:101224005844A1CB0C4403264900AE97BE8663E420
:10123400B70063E4C700B386C74014C4228B3A8462
:1012440049F097370000938727509C4B09476372F6
:10125400F706F917173700002320F750B25022542D
:1012640092540259F249624AD24A424BB24B456106
:10127400828063170B009737000023A1E752A1BFB8
:101284002326EB0089BF03274A0209CF63EFA70097
:101294003385A74083A70A016376F50097370000DA
:1012A40023ACA74A228B404461BF03274900BA9765
:1012B400C5B79737000023A1074A4DB7411122C48F
:1012C400173400001304044B1C4006C626C24AC04F
:1012D40091C782979737000023AE074897370000DD
:1012E40083C79769858B973400009384A46895C35A
:1012F40097370000A382076883C774001547637A91
:10130400F700A12B83C77400F5178A07A2979C43A3
:1013140082971C4491C38297173900001309C94767
:1013240003270900173600000346164297370000CA
:1013340083C7874193961700BA9683D60600D5CE05
:101344009737000083C7474063E3C70C9737000013
:10135400238C073E1C40639D07129737000083C708
:10136400F76191CF83C7740093F7F70F89EB973731
:101374000000A3850760975001E0E78020CD9737F0
:101384000000938727419C4363840710973700002C
:1013940093874745DC4317370000232FF73AE93B8F
:1013A400973700009387C73FDC53FDC3173700000E
:1013B40013078739184B9737000083C7B73F636912
:1013C400F70C83C7740015476364F70C9737000064
:1013D40083C7075F918BCDEF032609009736000082
:1013E40083C6963663CCD70A2244B240924402495B
:1013F4004101175300E0670063AC850793F7F70FCB
:10140400973600002382F634E3E2C7F215BF86075D
:101414003E97835507002310070097370000239950
:101424000736973700009387A7349C43173500008D
:101434000345853113172500BA979C438297973744
:10144400000083D7E734173700000347E72F93C71B
:10145400F7FF7D8D93171700032709003E978357E5
:1014640007005D8D2310A7009737000083C7C72DA1
:1014740091C78507173700002308F72C173700009A
:101484000347872C9737000083C7172CE370F7ECCA
:10149400B2402244924402494101828013971700CA
:1014A4003297035707006DF785072DBFAD6737C720
:1014B4000040BD072326F7200F10000097370000D7
:1014C40093878728C84F83278726BD66BD0693C7A1
:1014D400F7FF99836A052326D7205D8D8280411109
:1014E400B7170040985F3AC6945F3247E39CE6FE24
:1014F4003245410182801305F00F82800111973734
:1015040000009387275722CC03A4070C26CA06CED3
:101514002AC42EC6854419E40145F2406244D244EB
:10152400056182808347910003471400858B63041F
:10153400F7000044CDB719469305A1001305240014
:10154400F136E31895FE0545C9BF173700001307A8
:1015540067411C439306001094C30100010001007D
:1015640001001C4323A007008346150003482500FF
:10157400A2064208C29603480500C29603483500F5
:101584006208C29694D78346550003486500A206B4
:101594004208C29603484500C29603487500620893
:1015A400C296D4D7834695000348A500A2064208F4
:1015B400C29603488500C2960348B5006208C296E5
:1015C40094DB8346D5000348E500A2064208C29690
:1015D4000348C5000345F500C2966205AA96D4DB0C
:1015E40083C6150003C52500A2064205AA9603C5B5
:1015F4000500AA9603C535006205AA9694CF83C652
:10160400550003C56500A2064205AA9603C5450018
:10161400AA9603C575006205AA96D4CF83C6950021
:1016240003C5A500A2064205AA9603C58500AA968D
:1016340003C5B5006205AA9694D383C6D50003C535
:10164400E500A2064205AA9603C5C50083C5F500B8
:10165400AA96E205AE96D4D3D443F59AD4C3D44320
:1016640093E61600D4C3944393E6160094C3BA8752
:101674009443D842058B59E3984E01452300E60074
:101684009843184F2183A300E6009843184F4183E1
:101694002301E6009843184F6183A301E6009C43AD
:1016A400D84F2302E600D84F2183A302E600D84F87
:1016B40041832303E600D84F6183A303E6009853D4
:1016C4002304E60098532183A304E600985341833E
:1016D4002305E60098536183A305E600D853230647
:1016E400E600D8532183A306E600D8534183230799
:1016F400E600DC53E183A307F600828001008DBF7E
:1017040017370000130747261443411122C49C5E77
:101714004AC006C6998326C2858B3A8417390000CD
:1017240013094924D1CB9C5E97340000938484240C
:1017340093F7F7F99CDE1737000003470724930754
:101744000008631BF700832709009C4393F70704F1
:10175400173700002303F72283C7040093F7070415
:101764009DC3973700009387E7029C43829797377E
:10177400000023A9A72083C7040093F7F70B1737AA
:1017840000002309F71E83C7440093F707048DE77D
:10179400854717370000A301F71E9737000093878A
:1017A400271F9C43096798C7130700FC973600005E
:1017B4002384E61CD844F8D31C40985F1183058B1E
:1017C40009CB985F3D9B98DF05479736000023853A
:1017D400E61A985F1D83058B11CB985F1377F7F793
:1017E40098DF8547173700002308F7188327090077
:1017F400D8430583058B19C7D843759BD8C3D843F1
:10180400799BD8C3B2402244924402494101828068
:10181400397106DE16DC1ADA1ED82AD62ED432D254
:1018240036D03ACE3ECC42CA46C872C676C47AC2D4
:101834007EC0F935F250E2525253C2533255A2558A
:10184400125682567247E2475248C248324EA24E5E
:10185400124F824F21617300203097370000938725
:1018640027139443973700009387C71003C70700D3
:10187400058B11CB973700002380071097370000A2
:10188400A38C070E828003C71700058B65F7F852F7
:1018940071FF83C75700DDB7173800001308C80C61
:1018A400032708001C5F9583858BD1E709C61C5B61
:1018B400BD832300F60085CA83270800985B46078A
:1018C400935767016356070093E707C0C207C183B4
:1018D40003970600C207C18709C7BA970947B3C768
:1018E400E7022390F60085CD834715008DCB97360C
:1018F400000083C6860893F6060413879700894779
:101904008DCA3A9503470500854699471376F7062D
:101914006311D60262076187B947634C07008327C6
:1019240008009C5FED838D8B17370000A309F70433
:1019340081473E8582808547EDBF411122C406C69A
:10194400173400001304C40418403DE9AE877453EF
:10195400FDFE3E85B28597370000238E0700974031
:1019640001E0E7802042973700009387E7FF9C431C
:10197400B70680009843558F98C3D857719BD8D722
:1019840097370000A38A07FE97370000A38407FE59
:101994001C40094798C3144017370000130787FDFC
:1019A40083472700858B89EB83473700858BD9C70D
:1019B40097370000238207FCB24022444101828011
:1019C4008D476310F502973700009387E7F99C432E
:1019D400B70680009843558F98C3D857719BD8D7C2
:1019E4005DBF8547E319F5FA5447F977FD17F58F7D
:1019F4005CC70F1000001C40096798C7130700F864
:101A040017360000230AE6F6173700001307C7F558
:101A14001043184231830D8B11E713076019F8D373
:101A2400D4C795BF1842094631830D8B6315C7008F
:101A34001307E043EDB71307E01BD5B7FC52ADF332
:101A4400A5BF5D71A2C4A6C22A8413068002280021
:101A5400AE849305100886C6CAC04EDE52DCEFF091
:101A64006FE53545974001E0E780E07017330000EB
:101A7400130383EF832703009376F41F173E0000BC
:101A8400130E4EF623A40700984B973E0000938E46
:101A94002EF0370FFCFF1367F70398CBF84F1305AD
:101AA40010F8B7020400137707E0558FF8CF984376
:101AB400F576FD16758F98C39843B70633009303E4
:101AC40080251377F7E798C3984311497D1F13774F
:101AD400F7E71367071098C303270E008549930F90
:101AE40080021C47D58F1CC783A70E001307900DD7
:101AF4003400B8CB014793553700A69583C705003A
:101B040013767700B3D7C740858BE1C383270300DF
:101B140083280E00239C07042390070603A8C80209
:101B24001378D8FF23A6080383A807001378F707C0
:101B340093F808F833E8080123A0070103A8470233
:101B44003368580023A2070383A80E00014823A288
:101B5400780603DA07066307480303A80703038A22
:101B640006001358F80062081358884163580A01A4
:101B740003A807031358F8002380060103D80706B7
:101B84001378F80F03AA480663060A0003DA8705E8
:101B9400E37F49FB03A847023378E80123A2070344
:101BA40083870600635CF40003C805003396C9000C
:101BB4001346F6FF337606012380C5003E8663D3C1
:101BC400A7002A8613158601618505071377F70F89
:101BD4008506E312F7F3B640264496440649F259C3
:101BE400625A6161828097360000938666DA9C426D
:101BF400D8471316170163550602984713161701A1
:101C0400635006027D57B8D7173700001307C7B3D0
:101C1400584F0507173600002326E6B4116798C706
:101C240098470D83058B1DC3173700000347A7D4BE
:101C34001367170017360000230FE6D2130700F8C6
:101C440017360000230AE6D2214798C79847058B28
:101C540009CF173700000347F7D11367170017366A
:101C64000000A309E6D0054798C798470983058B68
:101C740009E798470583058B31CF9847173600004D
:101C8400130646CF17350000130505CE0983058BCF
:101C9400630307101841184331830D8B75EBAC4B6C
:101CA400184E93F5050203471700CDCD79EF1307BE
:101CB4007006D8CF034706001367170017360000D5
:101CC400230AE6CA114798C718415C57F19B93E76A
:101CD40017005CD79C4298479316370163D60602D7
:101CE4009736000083C686E0C18A173700001307C1
:101CF40067D8C5CE034787071367070297360000E6
:101D04002386E6DE056798C798479316270163D1B3
:101D1400060217370000034727C662076187635727
:101D240007000547973600002388E6C4096798C76B
:101D340098479316070163D606029736000083C6B8
:101D4400F6DA858A173700001307C7D2ADCE0347EA
:101D540097071367270097360000A389E6D8216701
:101D640098C7828029D785456315B7001307B00645
:101D740089B789456315B7001307F0061DBF8D4564
:101D84006315B700130730072DB71307500715B7AE
:101D94001307600739BF0347360013671700173668
:101DA4000000A30AE6BC094739BF834687070946F2
:101DB400BD8A6388C600034787078D463D8BE313BE
:101DC400D7F4114725BF83469707918AC9DA034799
:101DD40097071367870041B7397106DE16DC1ADAF4
:101DE4001ED82AD62ED432D236D03ACE3ECC42CACF
:101DF40046C872C676C47AC27EC0F533F250E25247
:101E04005253C2533255A255125682567247E24774
:101E14005248C248324EA24E124F824F2161730083
:101E24002030973700009387A7B698438567938738
:101E340007777CD3973700009387C7BA9C4383A660
:101E44000709139656006358060083A607091396DC
:101E54006600634406007453FDF2828071C5AA874C
:101E64000145E9C58D07C207C183F19BC207C18340
:101E740013074003636FF70217370000130747BFC8
:101E8400084317370000130727BE14436398A602BC
:101E9400173700001307C790185B014541CB411168
:101EA400C20706C60545DD8D0297B24001454101D2
:101EB400828017370000130767BBD9B70357650043
:101EC40035E303574500636FF704B306F740214633
:101ED400637CD60203280500938687001D8FAA968B
:101EE400611717360000035686862392E60023A066
:101EF40006012393060014C12312F500130786FF7D
:101F0400973600002395E6842313B5009735000027
:101F140083D5E583B387F540173700002319F7828B
:101F24002105828008419DB70145828082800DC1D0
:101F3400973700009387C7B303A3070097370000C0
:101F4400938787B283A8070081469A8763E31701C2
:101F5400828003A80700636DF50A636BA80A1387E0
:101F64008700E367E5FE03D667002167050763176B
:101F7400E60003C7C1970507238EE1969725000065
:101F84009385857C03D6470003D765002393070018
:101F940032974207418317250000231AE57A638AA2
:101FA400670217350000130565AC08416303F502A9
:101FB40003D5660019ED83D7460023A00601210747
:101FC4003E9621062392C600972700002391E778C6
:101FD400B6879843E30E17F797360000938606A951
:101FE4009442E307D7F683566700BDF283D64700D1
:101FF400035647001843A106B2962392D70098C30C
:1020040083D76500A107172700002312F774828085
:10201400BE86C28725BF03278511630207124111BB
:1020240022C406C68347C5008345E5042A8493F782
:10203400C70F2306F500834697000356C700139580
:102044008601618563F2C508635B05060345870065
:1020540093F6F607A304D700054693E62700631416
:10206400C50093E617002306D4005C4389075CC3CC
:10207400A30AB400032504112E864C430905EFE09E
:10208400FFFF8327841103465401D44303D7C700B9
:10209400B296118FD4C32396E7008947A30DF400A9
:1020A400034764039727000083C7A7706378F70486
:1020B4008347C40093E707012306F40081A093E754
:1020C40017002306F4006DB79376F60F635D0502DF
:1020D40003458700854513E627006314B50013E61E
:1020E40017002306C400A30AD400A30407008547ED
:1020F400A30DF400832784119C43DDF3B2402244F2
:1021040001454101828093E717002306F400A30AE6
:10211400D400A3040700032504114C430905EFE090
:10212400FFF58327841103465401D44303D7C70022
:10213400B296118FD4C32396E7008D4755BF05454A
:102144008280973700009387A7A59C43411122C43E
:1021540006C6858B2A84C5EF4165130525F597F0DE
:1021640001E0E780C06645C58347A5002315F50057
:1021740083270412BDE72320A4122322A412854737
:102184002311F404232005008347640154412316DA
:10219400F5000347D4002304E5000547A304E50044
:1021A400172700001307077D184F138517021581A1
:1021B4001C437D151375F50F9CC25C43DCC21C47A0
:1021C4009CC65C47DCC61C4B9CCA5C4BDCCA1C4FDF
:1021D4009CCE5C4FDCCE19CD938606021307070212
:1021E400C1BF8327441288C3835724042322A41223
:1021F400850779B79737000083D74788850717374E
:102204000000231DF786B2402244410182808347A7
:10221400C40023090400054593C747002306F400BE
:10222400DDB78347850193F7E70FD5EF8347950122
:10223400DDEB034625018346C50009CA83456503D2
:10224400172700000347F75663E7E50013F7060175
:1022540041CF014709C6C18A0357651C81C683560D
:10226400A51C369751C31307C71217250000035541
:10227400E557B335A70237460F004111130606246C
:10228400814622C426C206C67D543305A702972080
:1022940002E0E78020629727000083C7F751B384E8
:1022A400A700972700009387E77C03A78709832764
:1022B400070963F387003E84184375FB97270000E2
:1022C4009387474D9C43829781476364A400B30777
:1022D400A440B2402244B3B7970093C71700924476
:1022E4003E854101828081473E8582809727000098
:1022F4009387076A98437C53FDFF8280797126D2C5
:1023040006D622D44AD04ECE52CC56CA5AC85EC63D
:102314008347550303447513AA843E941374F40F3E
:102324009307400263F687001304B4FD1374F40F9B
:1023340003AA841383AAC413A38B8412228652850E
:10234400D685972002E0E7806051058915E503CB27
:10235400D41201498149337B6403930B50024A86AA
:102364005285D685972002E0E780404F058915C540
:10237400639169031374F90F238B8412B2502254AE
:1023840092540259F249624AD24A424BB24B4561D5
:1023940082808509E20993D989410509E31179FD10
:1023A400E1BF8327850903560504797193D6070194
:1023B400BD8EC206C182358E135776409357564060
:1023C400898B058B5D8F93573640918B5D8F935727
:1023D4001640A18B5D8F93171600C18B5D8F9317E9
:1023E400360093F707025D8F9317560093558600C6
:1023F40093F707041E065D8F1376F60F518F93D75C
:10240400554013D63540118A898BD18F13D6754028
:10241400D18F13D61540218AD18F13961500418A86
:10242400D18F1396350013760602D18F139655007B
:10243400137606049E05D18F93F5F50FCD8FA20771
:1024440045465D8F3307C70222D42A8426D252CC54
:1024540056CA032A8413832AC4135AC806D6369745
:102464004207418393577740135557400989858B19
:10247400C98F135537401189C98F135517402189C6
:10248400C98F131517004189C98F131537001375A8
:102494000502C98F1315570093558700137505045A
:1024A4001E07C98F1377F70FD98F13D5354013D76C
:1024B40055401189098B498F13D57540498F13D520
:1024C40015402189498F139515004189498F13952A
:1024D400350013750502498F1395550013750504CE
:1024E4009E05498F93F5F50F4D8F2207D98FB3873A
:1024F400C7024AD04ECE5EC662C4B697C207C18335
:1025040013D7774013D557400989058B498F13D5C5
:1025140037401189498F13D517402189498F139565
:1025240017004189498F1395370013750502498FA8
:102534001395570093D58700137505049E07498F9B
:1025440093F7F70FD98F13D5354013D75540118919
:10255400098B498F13D57540498F13D515402189AF
:10256400498F139515004189498F139535001375CB
:102574000502498F13955500137505049E05498F6F
:1025840093F5F50F4D8F2207D98FB387C702130632
:1025940050025285D685B697BD8E93940601C180AC
:1025A40033F6C402137BF60F972002E0E780002B7A
:1025B40005890DED8347D41201498149B3849702FB
:1025C400130C5002C1804A865285D685972002E0BA
:1025D400E780C0280589937BF90F11C5638634030E
:1025E400850993F9F90F0509E31F89FD230B64138A
:1025F400B250225492540259F249624AD24A424B8E
:10260400B24B224C456182805E8BCDB7797122D466
:1026140006D683C735002E8423160100A307F100D4
:1026240083C74500100802C02307F10083C7550083
:102634008A8502C2A306F10002C402C802CA02CCFF
:1026440002CEEFE09FF00347F10183470400014508
:102654006310F7020347E10183471400014563193E
:10266400F7000345D101834724001D8D1335150060
:10267400B25022544561828001119727000093874C
:10268400673F22CC03A4870C26CA4AC84EC606CE8E
:10269400AA8413092500854915C083C7140003477C
:1026A4003400858B6304F700405CFDB7194693053D
:1026B40044004A85EFE09FA5E31835FF2285F240E8
:1026C4006244D2444249B24905618280411197274C
:1026D40000009387273A22C403A4870C26C24AC069
:1026E40006C693042500054901E82285B240224428
:1026F4009244024941018280A6851305A402393718
:10270400E30525FF405CCDB741119727000093876F
:10271400673622C403A4870C26C24AC006C69304A3
:102724002500054901E82285B24022449244024929
:1027340041018280A6851305A401C93DE30525FF57
:04274400405CCDB771
:1027480097110020938181D4176100201301018B18
:102758001305400097E5FF1F9385458A170600205B
:10276800130606FE63FAC5008322050023A0550060
:1027780011059105E3EAC5FE174502001305C54F8B
:10278800970500209385C5FB1386818763FAC500EA
:102798008322050023A0550011059105E3EAC5FE33
:1027A8001385818797250020938545406377B50079
:1027B800232005001105E36DB5FEFD42739002BCB0
:1027C8008D4273904280930280087390023097E2A2
:1027D800FF1F9382A28293E23200739052309732A5
:1027E8000000938242C073901234730020303D433E
:1027F8002A876373C3029377F700BDEFADE593763D
:1028080006FF3D8ABA960CC34CC30CC74CC7410798
:10281800E36BD7FE11E28280B306C3408A069702B3
:10282800000096966780A6002307B700A306B700A6
:102838002306B700A305B7002305B700A304B70014
:102848002304B700A303B7002303B700A302B7000C
:102858002302B700A301B7002301B700A300B70004
:102868002300B700828093F5F50F93968500D58DE8
:1028780093960501D58D61B79396270097020000BE
:1028880096968682E78086FA9680C1171D8F3E96B7
:10289800E374C3F8A5B7B717004003C777051377E4
:1028A800E70FA38BE704130700F8A38DE7043D4760
:1028B800238CE70413075003A38CE7048280B7171F
:1028C800004083C7E7020D8993F7C70FC98F7327A5
:1028D8000080218B9386818709CB7327008023ACE6
:1028E800E18698425D9B731007800100010037174D
:1028F8000040130670052300C704130680FA23005E
:10290800C704010001002307F70223000704732707
:1029180000809C42A18BD98F7390078023AC0186DD
:1029280001000100828041112A83014E930E407EEE
:10293800130F0019930F400663E66E1493080019ED
:1029480013034006B3781503854E0D4FA14F33731B
:1029580065020D891335150063E0BE161308F6FFEE
:10296800794672984208135808013307C70213D6EC
:102978001700BE0732976146B3F6C6021306807089
:10298800B386C6023697A166F58F42075D8FB716E4
:10299800004083C7F60293F70708A307F100034630
:1029A800F10083C7F60293F70708E394C7FE83474D
:1029B800F100B716004093F7F70F63890714F32760
:1029C8000080A18B9386818763980714010001001A
:1029D800B7170040130670052380C704130680FA52
:1029E8002380C7040100010023AA070303C61703B5
:1029F80013660608A388C70223800704732600808D
:102A08009C42A18BD18F7390078023AC0186010073
:102A180001001166B71500407D16DC59C85DA98F05
:102A2800F18FE5FFF3270080A18B89CBF327008086
:102A380023ACF1869C42DD9B739007800100010066
:102A4800B7170040130670052380C704130680FAE1
:102A58002380C70401000100D8DB03C717031367ED
:102A68000704A388E70223800704732700809C4299
:102A7800A18BD98F7390078023AC018601000100D8
:102A8800410182807D133368E3039308E016630EE7
:102A980008003368F3039308D01663080800937896
:102AA800330093B818009388D81633081E01131EF4
:102AB8000801135E0E0149B56393E5030548638673
:102AC80008000148630303002A8871087298FD15FD
:102AD800131E0801C205135E0E01C181B5BD13F8AE
:102AE800150063F4BF007908D5B713381800E5BF9F
:102AF80083C7F60293F70708A307F1000346F1001E
:102B080083C7F60293F70708E394C7FE8347F100EB
:102B180093F7F70FF1DF65B5F327008023ACF18653
:102B28009C42DD9B7390078055B55971E2C486D6E7
:102B3800A2D4A6D2CAD0CECED2CCD6CADAC8DEC6E5
:102B4800E6C2EAC06EDE2A8C02D6EF00D03EF3273A
:102B58000080A18B138D818791CBF327008023AC54
:102B6800F18683270D00DD9B73900780010001002B
:102B7800B7170040130770052380E704130780FA8E
:102B88002380E7040100010003C7F7021377770FDA
:102B9800A387E70203C7F70213678700A387E70243
:102BA800238007047327008083270D00A18BD98F0A
:102BB8007390078023AC018601000100F327008091
:102BC800A18B91CBF327008023ACF18683270D00DE
:102BD800DD9B7390078001000100B71700401307C1
:102BE80070052380E704130780FA2380E7040100B7
:102BF800010003C7E7021377C70F2387E70203C75C
:102C0800E702136717002387E70223800704732767
:102C1800008083270D00A18BD98F7390078023AC88
:102C2800018601000100130780C13347E50291695D
:102C3800938709E8130650023D69B7440F0093844F
:102C48000424856B130BA004014A814A1304700500
:102C5800FD19B347F5023307C7023EC2930709A619
:102C68001309803E3347F7023AC433472503054921
:102C780033198901135939403345950293840BFA66
:102C8800B3948401811B3306C702B346F6023309A5
:102C9800E90236C6330B670313076055B304950280
:102CA800130500103309E902B346FB02130B80FA3F
:102CB800B3C4A40236C8B347F9029396340037194F
:102CC800004036CC930409043ECA73260080218A4A
:102CD80011CA7326008023ACC18603260D005D9AB5
:102CE8007310068001000100930770052380F4002B
:102CF8002380640101000100034639051376860F1D
:102D0800A309C9040346390513661600A309C904B3
:102D1800238004007325008003260D00218A498E34
:102D28007310068023AC018601000100916CE17DDF
:102D380073260080218A11CA7326008023ACC186BD
:102D480003260D005D9A73100680010001009307A9
:102D580070052380F400238064010100010003460C
:102D6800390513660602A309C90403560905336623
:102D780096012318C904035609053366B6014206AD
:102D880041822318C9042380040073250080032688
:102D98000D00218A498E7310068023AC018601003C
:102DA8000100034639051376060263070616034633
:102DB8003905218A6DDE6810EF00101C732600802B
:102DC800218A11CA7326008023ACC18603260D0010
:102DD8005D9A73100680010001002380840023801F
:102DE800640101000100034639051376F60DA309B5
:102DF800C9040346390513660602A309C904035624
:102E08000905336696012318C90403560905336674
:102E1800B601420641822318C904238004007325A1
:102E2800008003260D00218A498E7310068023AC8A
:102E3800018601000100034639051376060263097D
:102E4800061003463905218A6DFE97D0FF1FE780DB
:102E580000242A8632CE97D0FF1FE780402372468F
:102E6800E30AC5FE03560905325533669601231851
:102E7800C904EF00301203463905218A6DDE035577
:102E8800090503462905924733F5A9003386C90287
:102E980032951D8DA24763D5A700B2476346F50E4C
:102EA80009466365560FC247850A1316150093FA3B
:102EB800FA0F3346F6026354A03A0506094533462D
:102EC800A60273250080218911C97325008023ACCF
:102ED800A18603250D005D9973100580010001008E
:102EE8002380840023806401010001000355C90286
:102EF8002A96420641822316C902238004007325BC
:102F0800008003260D00218A498E7310068023ACA9
:102F180001860100010029BD73260080218A11CA9B
:102F28007326008023ACC18603260D005D9A7310BA
:102F380006800100010023808400238064010100D1
:102F480001000346390513660602A309C90425BD15
:102F580073260080218A11CA7326008023ACC1869B
:102F680003260D005D9A731006800100010023807E
:102F780084002380640101000100034639051366BB
:102F88000602A309C90451BDE38F0AF07326008025
:102F9800218A11CA7326008023ACC18603260D003E
:102FA8005D9A73100680010001002380840023804D
:102FB800640101000100034639051375FC0F1376FF
:102FC800860FA309C90403463905498EA309C90414
:102FD800238004007328008003260D00218A3366AD
:102FE80006017310068023AC018601000100034628
:102FF80039051D8A6317862773260080218A11CA1E
:103008007326008023ACC18603260D005D9A7310D9
:1030180006800100010023808400238064010100F0
:1030280001000346390511651376F60DA309C90495
:103038000346390513660602A309C90403560905A0
:10304800498E2318C904035609052165498E23189A
:10305800C904238004007325008003260D00218AFB
:10306800498E7310068023AC0186010001000346D7
:10307800390513760602630E062003463905218AB0
:103088006DDE6810D52D73260080218A11CA73263B
:10309800008023ACC18603260D005D9A731006805C
:1030A80001000100238084002380640101000100E5
:1030B8000346390511651376F60DA309C9040346BD
:1030C800390513660602A309C90403560905498E82
:1030D8002318C904035609052165498E2318C90414
:1030E800238004007325008003260D00218A498E61
:1030F8007310068023AC01860100010003463905E0
:10310800137606026303061C03463905218A6DFE01
:1031180097D0FF1FE780A0F7AA8C97D0FF1FE78002
:1031280000F7E30C95FF035609051165498E3255E2
:103138002318C904852503463905218A6DDE7326BF
:103148000080218A1385818709CA7326008023ACF1
:10315800C18610415D9A731006800100010023802A
:1031680084002380640101000100034639051376B9
:10317800F60DA309C90423800400732800801041B8
:10318800218A336606017310068023AC018601008C
:1031980001000358090503462905E24733F80901E8
:1031A8003386C90232983308F8401306800C330678
:1031B800C802D2473346F60263550015050609488A
:1031C800334606036351C0140358C9029308F00F2D
:1031D80013585800329863D6081F09466373461976
:1031E800F3270080A18B89CBF327008023ACF186DD
:1031F8001C41DD9B739007800100010037170040D8
:10320800930770052300F704930780FA2300F70457
:10321800010001008356C70289678117D58FC2074D
:10322800C1832316F70223000704732700801C417B
:10323800A18BD98F7390078023AC01860100010010
:10324800B650265496540659F649664AD64A464B0D
:10325800B64B264C964C064DF25D656182807D1614
:10326800B1B973260080218A11CA7326008023AC65
:10327800C18603260D005D9A7310068001000100C7
:10328800238084002380640101000100034639057E
:103298002DBB73260080218A11CA7326008023ACB7
:1032A800C18603260D005D9A731006800100010097
:1032B800238084002380640101000100034639054E
:1032C80013660602A309C90469B373260080218A1C
:1032D80011CA7326008023ACC18603260D005D9AAF
:1032E800731006800100010023808400238064019C
:1032F800010001000346390513660602A309C90443
:10330800C5B37D166DBD55CE0358C902B308C0407C
:10331800135858006357180B094663744605F3277A
:103328000080A18B89CBF327008023ACF1861C4158
:10333800DD9B7390078001000100B7170040130759
:1033480070052380E704130780FA2380E70401004F
:10335800010003D7C7027D8B2396E7022380070469
:10336800E9B573260080218A09CA7326008023AC38
:10337800C18610415D9A7310068001000100238008
:10338800840023806401010001000356C9021376FA
:10339800F60F33667601420641822316C90223805E
:1033A8000400732800801041218A336606017310D7
:1033B800068023AC018601000100050A137AFA0F82
:1033C80029B2F3270080A18B89CBF327008023AC97
:1033D800F1861C41DD9B7390078001000100B7173F
:1033E8000040130770052380E704130780FA238041
:1033F800E7040100010003D7C70216063A96420601
:1034080041822396C70299BF914763EEB7021737E7
:1034180002001307E7C38A05BA959C41BA978287C9
:10342800B717004003A7470B1345F5FF698F23AA79
:10343800E70A03A7070B698F23A8E70A03A7070A68
:10344800798D23A0A70A8280B717004083A6470B6F
:103458001347F5FFF98E23AAD70A83A6070B558DC4
:1034680023A8A70A83A6070A758F23A0E70A8280E4
:10347800B717004003A7470B498F23AAE70A03A7FA
:10348800070B1345F5FF45BFB717004083A6470B49
:103498001347F5FF758F23AAE70A03A7070A598D73
:1034A8004DB7B717004003A7470B498FEDB79147B2
:1034B80063EEB702173702001307C7BA8A05BA9531
:1034C8009C41BA978287B717004003A7470D134559
:1034D800F5FF698F23AAE70C03A7070D698F23A8B7
:1034E800E70C03A7070C798D23A0A70C8280B717D8
:1034F800004083A6470D1347F5FFF98E23AAD70C82
:1035080083A6070D558D23A8A70C83A6070C758FD6
:1035180023A0E70C8280B717004003A7470D498F07
:1035280023AAE70C03A7070D1345F5FF45BFB717F7
:10353800004083A6470D1347F5FF758F23AAE70CB4
:1035480003A7070C598D4DB7B717004003A7470DC0
:10355800498FEDB7931705010547C1836382E504D9
:103568008DC10947638DE5040D476380E50637176C
:103578000040231EF70883560709D58F2318F7083C
:103588008280371700400356470993C6F7FFF18E2C
:10359800231AD7088326C70A558D2326A70AC1BF31
:1035A800371700400356470993C6F7FFF18E231AD1
:1035B800D7088326870A558D2324A70A4DBF3717B6
:1035C800004083564709DD8EE1B737170040835620
:1035D8004709DD8EE9BF9387818725E1732700803E
:1035E800218B09CB7327008023ACE18698435D9B30
:1035F800731007800100010037170040930670051B
:103608002300D704930680FA2300D70401000100A1
:103618008346E70093C5F5FFF58D2307B700230020
:103628000704732700809C43A18BD98F7390078070
:1036380023AC01860100010082807D163336C0006C
:1036480073270080218B09CB7327008023ACE18688
:1036580098435D9B731007800100010037170040F5
:10366800930670052300D704930680FA2300D70435
:10367800010001008346E700D58D93E50504230783
:10368800B70023000704F32600809843218B558F49
:103698007310078023AC01860100010073270080A6
:1036A800218B09CB7327008023ACE18698435D9B6F
:1036B800731007800100010037170040930670055A
:1036C8002300D704930680FA2300D70401000100E1
:1036D8008346F70093F6C60FA307D7002300070415
:1036E800F32600809843218B558F7310078023ACF5
:1036F80001860100010073270080218B09CB732705
:10370800008023ACE18698435D9B7310078001001D
:10371800010037170040930670052300D70493066D
:1037280080FA2300D704010001008346F700558E74
:10373800A307C700EDB5B717004003D587004205BA
:1037480041819377050491EB9377F5013755E801AB
:10375800130505803345F50282809377050C13071E
:1037680000046397E7009377F50137459C1CCDB7B4
:103778002165130505D0828037E700E01C435443D8
:10378800A183E206D58F1CC1FD572320F7182322F9
:10379800F718828013178500B7E700E023A0E71029
:1037A800618123A2A7108280B7F700E08847CC4741
:1037B8008280814737370040A14663C4C7003285FD
:1037C80082800345B740E38EA6FE3385F5000345A6
:1037D800050085072304A740CDB797F7FF1F9387F8
:1037E800E74A9C43171700201307473C3E95636E32
:1037F800E50017470020130767606368A70017F7FD
:10380800FF1F2325A7483E858280FD57EDBF411144
:1038180022C406C62A8405372947B307E502B24001
:103828008D83B3D7870222449507B3D7E70237378A
:103838000040C207C1832316F740410182807165A9
:1038480041111305052006C6D937B73700401307BD
:1038580070F82381E7400D47A381E7401307000470
:10386800A380E74005472387E740B24041018280B3
:10387800938781889C43411106C691C38297938799
:10388800C1889C4391C3829703D761809307C01274
:1038980063F7E70403D581809306B01263E4A604B6
:1038A8009386418803A3060063070300B24013050B
:1038B800C012410102830507098F3385A740E547F8
:1038C8003305F5024207418309839307F7FF3E95C5
:1038D8003345E5021375F50FB240410182801305A7
:1038E8004006DDBF0145CDBF03A84500411126C2F2
:1038F80006C622C48347180003480800A944A20743
:10390800B3E70701C2070D68C187130828906396BB
:10391800070385473284EF70B031AA8419ED938785
:1039280001889C4399CB03451400034704002205F2
:10393800598D1335150005058297B2402244268516
:103948009244410182802D453DE7D841411122C46E
:1039580026C206C68347170003470700B684A20796
:10396800D98F0D67930697A132846396D7020937DA
:1039780083C741806374F5002382A1808547239023
:10398800F40083C741802300F4000145B24022447B
:10399800924441018280130787902945E398E7FE06
:1039A800CC4589472390F4000946228597D0FF1F0C
:1039B800E780806CD9BF828083474500858BADC77F
:1039C800011122CC2A84035525009385019D06CE3A
:1039D800EF70D020058929C5035524000147814689
:1039E8000546ED45EF70E0592AC61DC997F7FF1F38
:1039F800938707D583D7A70201462C002314F1002B
:103A080085472315F10083C741802300F50003553E
:103A18002400EF80807909C5ED452800EF70206EFD
:103A2800F24062440561828082804165411193853C
:103A3800019D7D1506C6EF908068B24097F6FF1F7E
:103A4800938606D54146954517F5FF1F130545CFC3
:103A580041016F90E05B23A0A1888280411122C4BC
:103A680006C6854709446311F502834706000144E9
:103A7800238EF18603C741806378F700170500009D
:103A88001305C5F3EFB0F0242285B240224441016A
:103A9800828085476301F50209C909476302E50287
:103AA8000D476306E5020945828083C7418023806C
:103AB800F500014582809387C18783C70700C5BF8A
:103AC80097F7FF1F83D767C82390F500DDB71387E3
:103AD800C180035707002392E50017F7FF1F13075C
:103AE80027C68356A7020357A7032383F50023900D
:103AF800D5002391E50075BF411106C6953B83C7E4
:103B08004180637AF5002382A18017050000130520
:103B1800E5EAEFB0101CB2400145410182804167DF
:103B28007917630CE502411122C406C685472A8429
:103B3800639AF50022852244B2409385019D410194
:103B48006F90E05789476396F5008545EFB0F0120E
:103B580075D1B2402244410182808280CC4141111A
:103B680006C6328503C6150083C5050022064D8E9C
:103B780042068D654186138875A2630C060F63485B
:103B8800C804138845A26306060B634AC8009385D8
:103B980035A26309B60623900600294679A0138842
:103BA80055A26308060B938565A2E316B6FEC145C8
:103BB8001D4663ECE5064546198E63F3C7003E864D
:103BC8002390C600972502009385054C89A8138881
:103BD80095A26300060F634E060B1388A5A2630A1D
:103BE800060F938505A5E318B6FA99451D4663EEB9
:103BF800E502198E63F3C7003E862390C6009385BD
:103C0800418131A89D451D4663E1E5022146198E93
:103C180063F3C7003E862390C60093850189BA9551
:103C280097D0FF1FE78040450146B24032854101E9
:103C38008280AD451D46E3EAE5FE3146198E63F301
:103C4800C7003E862390C600972502009385454607
:103C5800F9B795451D46E3EAE5FC1946198E63F365
:103C6800C7003E862390C60097350200938585F6E7
:103C78007DB7C1451D46E3EAE5FA4546198E63F36B
:103C8800C7003E862390C60097250200938505410C
:103C980079B7C1451D46E3EAE5F84546198E63F351
:103CA800C7003E862390C6009725020093854541AC
:103CB800BDB789451D46E3EAE5F60D46198E63F35F
:103CC800C7003E862390C60097350200938585EF8E
:103CD800B9B7B5451D46E3EAE5F43946198E63F3ED
:103CE800C7003E862390C600972502009385C538F5
:103CF8003DB797F6FF1F938666BD4146CD4517F53C
:103D0800FF1F1305A5A96F90A03082809387C18AF1
:103D18009C4303C7018A83C6318201E781473E85F8
:103D2800828003D607006316A60003C66700E3086F
:103D3800D6FE7D171377F70FA107C5B7B2862E8673
:103D4800AA85172502001305653C6F00D27A011178
:103D5800930500030D4506CEEF40801D9305000531
:103D68001145EF40E01C9305C0030545EF40401C9A
:103D780085471306F100854513055030A307F10068
:103D8800EF804126F240056182808547631AF5007D
:103D98001166130686A9894503C5118A6F10505EFE
:103DA80089476317F500894503C5118A6F10907F0D
:103DB800828085476398F50019E2238DB1882388AE
:103DC800C18A828009476399E50019E6238DF18845
:103DD80003D581896F00700782809387418A9C434D
:103DE800011122CC06CE2E8481CB9C4791C78297A5
:103DF800F2406244056182806C0013057040EF60F8
:103E0800017E324681452285EF60D13FD5B7011149
:103E18009397050126CA06CE22CC4AC84EC652C47C
:103E2800C187AE8463D7070803C5118AEF1050090C
:103E38002A8439C9034705009307000D6313F70463
:103E4800834725004547638BE7046547639BE70283
:103E58001725020013050528EF00F269130954001D
:103E68009309B400172A0200130A0A288345090097
:103E780052850509EF003268E39A29FF2945EF00CA
:103E8800926B2285EF10A07C2165258DF24062445B
:103E9800D2444249B249224A0561828003466500FC
:103EA800834575001725020013058524EF00B264C9
:103EB800C9BF93F7150085C317F6FF1F130686A21F
:103EC80097F5FF1F938545A103C5118AEF70D15D52
:103ED80013C5140065BF93F725000145C5DB2939D3
:103EE8001166130686A9894503C5118AEF10504942
:103EF80013C5240061BF797126D24ECE06D622D4CE
:103F08004AD052CC9147AA84AE896314F50483D76A
:103F1800A5001306E100854513055030239CF18860
:103F280023070100238D0188EF80C10B9387418A05
:103F38009C4391C7DC4781C7CE8526858297B250BE
:103F4800225423AE918802599254F249624A45613B
:103F580082801387C1891843E31AF7FC854503D586
:103F68008189753E854503D58189EF00C073C16796
:103F780003DA8189F917631BFA0205449305E10006
:103F880013055041238D0188A381818223070100F5
:103F9800EF60E1648347E100B1E303C7018B914718
:103FA800E316F7F86D332388018A49B79387C18AE6
:103FB80003A9070003C4018A69D00355290011C960
:103FC8009305E100EF70F02609C54C455285EF9046
:103FD800000F7D141374F40F2109F9BF9387818AA8
:103FE8009C4383C74700898BCDDB9305000A0D45A9
:103FF800EF3010749305000A1145EF307073814556
:104008000545EF30F0721306E10085451305503081
:1040180023078100EF70117D49B7011117050000D2
:10402800130525DF06CE22CCEF20A00B1384118ABE
:1040380085471306F10085452300A4001305404178
:10404800A307F100EF60B1427D55EF60D03B7D558D
:10405800EF90C0037939D13AC12317050000130541
:1040680005D3D53A17050000130565CAE12B0345AA
:1040780004008545EF10D018F24062440561828043
:1040880023A2B18A23A4A18A828023A6B18A23808D
:10409800A18A82809387C1899C43797106D622D4EC
:1040A80026D24AD04ECE52CC1147639BE70483C731
:1040B800A189414481CF9387C18A8043B284B6895C
:1040C80083C7018A03C7318299EB55442285B250D0
:1040D800225492540259F249624A456182808346C9
:1040E8004400639AA600834654006396B60083464C
:1040F80064006380E606FD1793F7F70F2104E9B71C
:1041080009474144E384E7FC2C001305504123048C
:104118000100EF60C14C834781008DCB93050002FD
:104128000D45EF30F060930500031145EF30506006
:1041380095450545EF30D05F854730008545130527
:1041480050302304F100EF70F16949B70931414457
:10415800B5BF0355240093056100EF70900D35D568
:104168004C4503D58189EF706027058939DD13999E
:10417800040113590901014781464A86ED4503D5D3
:104188008189035A0400EF60D05F2AC64D441DDDC3
:104198002686CE85231441012315210197D0FF1FC0
:1041A800E78080ED01462C0003D58189EF70F07F10
:1041B8002A84E30D05F0ED452800EF60507439B707
:1041C800C841011122CC06CE3284034615000345AE
:1041D80005002206498E19CB0D681308B8A42D4591
:1041E80063090607F2406244056182800D65130881
:1041F800D5A463000603130825A2630C060175788D
:104208001308E85C3298420813580801854863EEA1
:10421800080303D5A50036C632C4CD3CB24615C145
:104228009387418A9C4322468345550003A3070090
:10423800A2876244F24003454500368785460561FA
:10424800028323900600014571BF1308B5A46317C4
:10425800060303D6A1821D45E376C7F8198E63D3FA
:10426800C7003E86CC452390C60042064182BA95D7
:10427800228597D0FF1FE78020E0F1B79307A5A418
:104288006318F60091472390F6001146CC45CDB748
:10429800930785906317F60089472390F60009462F
:1042A800F5B79307E5A4631AF600DC4523901601D9
:1042B80083C707002300F40079B713057590E3144A
:1042C800A6F8D9BF011122CC06CE26CA4AC82317A0
:1042D800D1002D4429EBDC412E89B28403C4170098
:1042E80083C7070022045D8C8D679386D7A4630675
:1042F800D400938627A3631FD4020355A900393439
:1043080019E101440DA09387418A9C4383455500D8
:104318000345450003A807002286A6871307E10086
:10432800814602982A842285F2406244D244424956
:10433800056182809386C7A46314D4028357E10081
:1043480005473544E391E7FE0345060013040008DA
:10435800E3EBA7FC9387418A9C43DC43829755B7DC
:1043680093862790631AD4028356E1008547EF703D
:10437800200C2A844DF99387C18A8356A9009C434F
:1043880003C7018A3DDF03D627006302D6047D17E1
:104398001377F70FA107FDB79387E7A4E313F4F6A4
:1043A8008357E10005473544E39FE7F603450600D8
:1043B80013040008E3E9A7F6DC452380A7009387E8
:1043C800418A9C433335A0000905DC4341BF13876C
:1043D800418A184303C5470083C5570083C71400A3
:1043E8000328070003C70400A2078946D98FC2071C
:1043F800C18705476383E7008D460D66A6871307C7
:10440800E10013062690029839BF411122C4416485
:104418001305F4FF9385019F06C626C24AC0EF80A4
:10442800104A1305F4FF9385019E97E4FF1F9384B8
:10443800244CEF80D04897E6FF1F93866665414677
:10444800E9452685EF80D03CCC4C2A890945EFF018
:104458004FE413878183834607009387418303478B
:10446800170003C61700138401A083C50700A3061D
:10447800E40083D7A40CA30EE40003D7A416A30278
:10448800C400A30AC40003D6A4132310F400231CF9
:10449800E40083D7A40D1387018303D5A410231840
:1044A800C4000357070003D6A4142311F40085475A
:1044B8002303F4002306D4002307F4002319C400BF
:1044C800230ED4002302B4002314A400230AB4004A
:1044D80023150400230B0400231D0400230F0400EC
:1044E8002312E40203D7A418938581A22303F402BC
:1044F8002310E402231104020D45EFF08FD9A285A1
:104508001D456136B24022444A8592440249410120
:1045180082808D67138527A36301A6049387D7A498
:104528000145631EF6008947639CF50085473545BC
:104538006397F60083470700238BF18A0145828041
:104548008D472945E39DF5FE85473545E399F6FEF8
:1045580083470700238AF18AD5B785473545E39015
:10456800F6FE83470700A389F18AC9BF8D671385C3
:1045780027A36308A6029387D7A46317F60289477F
:10458800639BF50083C7618B2300F7008547239061
:10459800F600014582808D476398F50083C7418BFB
:1045A800E5B783C7318BCDB723900600DDB701454A
:1045B800828025E303A84500AE8883471800034896
:1045C8000800A207B3E707010D68930EF8A4639AE1
:1045D800D70391473548639FF60203A5C8004111E8
:1045E800B285114606C697D0FF1FE780E0A89387DB
:1045F800418C9C4305458297B24001484285410160
:1046080082809308289029486396170185476F6030
:1046180030622D484285828041654111938581A38E
:104628007D1506C6EF80B029B24097E6FF1F938636
:10463800E64C4146994517E5FF1F130525464101FC
:104648006F80101D23A2A18C82800111938581A304
:1046580022CC06CE2A84EF607058058929C101470B
:1046680081460546ED452285EF60B0112AC605C989
:1046780097E7FF1F9387874283D7A70501462C003A
:104688002314F10085472315F10023000500228536
:10469800EF70B03109C5ED452800EF605026F240B3
:1046A80062440561828041677917630CE502411114
:1046B80022C406C685472A84639AF50022852244C7
:1046C800B240938581A341016F80701F894763962B
:1046D800F5008545EFA0705A75D1B24022444101DA
:1046E8008280828011456FE04FC441119396250066
:1046F800AA852D4506C697C0FF1FE7804061B240D6
:10470800014541018280411126C29394250022C4AB
:104718004AC02A843289A686AA850146254506C646
:1047280097C0FF1FE780A05EA6864A86A285294516
:1047380097C0FF1FE780A05DB2402244924402491F
:10474800014541018280011122CC06CE3714004078
:1047580026CA4AC84EC652C483447405034AB405DF
:104768008349840503499405EFE0EF928347A40544
:1047780093F4F40F137AFA0F93E71700230DF40458
:1047880093F9F90F1379F90FB717004003C7A70575
:10479800058B6DFF03D5C705A38D4705238C37050A
:1047A800A38C2705A38B9704F2406244D244424964
:1047B800B249224A0561828041119397050122C4BA
:1047C80006C6C1872E8463DD0700EF00706F19C12C
:1047D800EF00F0672165218DB240224441018280BB
:1047E80093F7150013C51500E5FB9397250163D0D2
:1047F8000702EF107146FD3537F60200130606E092
:10480800896503C5818CEF10A0370965E9B79397CF
:1048180015010145E3D207FC172502001305C5AAB7
:10482800EF00A26113060064916503C5818CEF1047
:10483800203511654DB71D714946972502009385AE
:1048480025A417250200130525E286CE97D0FF1F61
:10485800E780808B01E9172502001305A5A3EF0067
:10486800C25D01A0B7F600E0795798CAFD57DCCAC7
:104878000567B7E700E023A0E7101306F00290C22F
:1048880023A0E718010001001306C003814548086A
:1048980097D0FF1FE780C08197E7FF1F9387876442
:1048A8003ECA896793870780231CF100B547230414
:1048B800F102A167938707E03ECEB707010593870A
:1048C80007103ED0ED472312F10285472303F1027A
:1048D800970700009387A7E1BEC497070000938756
:1048E800C7E2BEC68567938717D02315F10297F7ED
:1048F800FFFF9387A7EB3EDAB7F50700970700009D
:104908009387A7E43EDE8146970700009387C7DDBB
:104918007000E1051945BEC097C0FF1FE780203F22
:1049280058088147994670003E9603460600850759
:104938000507A30CC700E398D7FED24791C70357D2
:10494800810185676373F70001A04808EF10207D97
:10495800AA8501C91725020013050595EF00A2399C
:1049680001A0F6402561828041111705000013055A
:10497800E5E406C622C4EF10C0761384818C2300B8
:10498800A4001928034504002244B240130600324B
:10499800896541016F10C01E411106C6F3270080CA
:1049A800A18B1387818789CBF327008023ACF186FD
:1049B8001C43DD9B7390078001000100B71700407E
:1049C800930670052380D704930680FA2380D704C2
:1049D8000100010083C6F70293F6A60FA387D7024A
:1049E80023800704F32600801C43A18BD58F739086
:1049F800078023AC018601000100F3270080A18B0A
:104A080089CBF327008023ACF1861C43DD9B739090
:104A1800078001000100B717004093067005238046
:104A2800D704930680FA2380D7040100010083C6C7
:104A3800F70293E62600A387D70223800704F3260C
:104A480000801C43A18BD58F7390078023AC01860F
:104A5800010001000545EFD09FE669311305407E4E
:104A680081470147814605468545EFD0DFEBB240D7
:104A7800014541016F10501F0347D50083C7D5007A
:104A880083C6E500034805001D8F8347E5003337DB
:104A9800E00003C60500958FB337F0005D8F83C62D
:104AA800150083471500A206A207D18EB3E70701B8
:104AB800958FB337F0005D8F83C635008347350087
:104AC8000348250003C62500A207A206D18EB3E736
:104AD8000701958FB337F000D98F83C65500034778
:104AE80055000348450003C645002207A206D18E9B
:104AF80033670701158F3337E000D98F83C67500F8
:104B0800034775000348650003C665002207A2062F
:104B1800D18E33670701158F3337E0005D8F83C669
:104B28009500834795000348850003C68500A207C2
:104B3800A206D18EB3E70701958FB337F0005D8FDA
:104B480083C6B5008347B5000348A50003C6A50082
:104B5800A207A206B3E70701D18E958FB337F000FD
:104B6800D98F0345C50003C7C500398D3D89333545
:104B7800A0005D8D8280411189451305004006C65D
:104B8800EFE05F9DB7E700E0370702000546C14543
:104B980023A0E7100545EFE01FA417150200130531
:104BA800E575EF008229371700408327C70C0945B0
:104BB80093E707012326F70C97C0FF1FE780C0047F
:104BC800014597C0FF1FE780E09417150200130501
:104BD8006574EF008226B2401305401F410117C3D8
:104BE800FF1F67006302371600408327460A4111FA
:104BF80022C493C7F7FF858B939657008347050018
:104C080006C62A8493F7F7FDD58F8326460A230024
:104C1800F5000327460A858293C61600858A93F70E
:104C2800F7FB9A06DD8E8327460A09831347170088
:104C38008D832300D500058BF99A93C71700558FEC
:104C4800858B8326460A2300E5008607759BD98F46
:104C58000327460A918293C61600858A1583230086
:104C6800F5008A06ED9B13471700DD8E058B931719
:104C7800370013F776FF5D8F8327460A2300D50098
:104C88002300E500A18393C71700858B939617002F
:104C980083471500F59BD58F8326460AA300F500A8
:104CA800F99BB98293C61600858ADD8E8327460A4A
:104CB800A300D500ED9AB18393C71700858B939510
:104CC80047009377F7FE0327460ACD8F2300F500A8
:104CD800358313471700058B1E0793F7F707D98FFE
:104CE8002300F5008327460ABD8393C71700858BE9
:104CF8008A07DD8E8327460AA300D50093F707406D
:104D080085EF8327460A93F707049DE717150200E6
:104D18001305C55BEFF0317E8347240093E7270036
:104D28002301F40083471400B24093F7F707A30068
:104D3800F400224441018280371700408327470A44
:104D480093F7074099EF8327470A13971701634A98
:104D580007009387418D98438947E315F7FC912D08
:104D6800D1B7371700408327470A93F707409DE3D9
:104D78008327470A93F7070891EF171502001305D1
:104D88006556EFF051778347140093E70704A300B3
:104D9800F40049BF371600408326460A998293C615
:104DA8001600858A139756008346140093F6F6FD7D
:104DB800D98E0327460AA300D4001D831347170082
:104DC800058B9317370013F776FF5D8F8327460A05
:104DD800A300E400A98393C71700858B9396470027
:104DE8009377F7FE03472400D58F759B2301E400D2
:104DF80013F7F7FBA300E40093F7070291CF83D7DB
:104E0800218D8507C207C1832399F18C1307703E52
:104E1800E37AF7F08D3339B72399018C21B779718B
:104E2800171502001305854F06D6EFF0D16C02C6A0
:104E3800812D1385C18D453B992D17070020034708
:104E4800778A9706002083C6E6892207558F1207BE
:104E5800931607010247C175C1826D8F558F97065A
:104E6800002083C656889707002083C7C787A206F5
:104E7800DD8EC1671386F7FFD206718F558F3AC052
:104E880017070020034757869706002083C6C68564
:104E98002207558F1207931607011247C1829707F9
:104EA800002083C787846D8F558F9706002083C69F
:104EB800D683A206DD8ED206718F558F3AC21707A8
:104EC80000200347B7829707002083C7278222075D
:104ED8005D8FA247120742074183ED8FD98F1707CD
:104EE80000200347D7809706002083C64680220704
:104EF800558F5207F18FD98F3EC483C7518E858B4A
:104F0800139767008347D10083C6518E13965600C6
:104F180093F7F70313760608D98F13D73600D18F86
:104F2800137647000347E1008582A18A1377370F7C
:104F3800518F558F2307E10003C7418E1356570041
:104F4800058A9356770093F7C70F8606D18FD58FBA
:104F580093563700A18A9D9B13760701D58FD18F71
:104F680093553700A306F1001376170093571700DF
:104F780085890983858B058B050685051D8E998D89
:104F880093F5F50F1376F60F05452D2D8347C100D0
:104F98003D89938581A4C19BC98F0A852306F100A9
:104FA800E13C0DCD41468A8508082398018CEFF035
:104FB80031499387418D984389476318F70014084E
:104FC800414685450545EFF0EF8C41468A851385B6
:104FD80081A4EFF0F146B2504561828083D7018DFC
:104FE80085072398F18CC5BF82803D897D1595473B
:104FF80063E1A71017170200130707340A053A954B
:105008001C41011106CEBA9782872C001305403047
:10501800EF6091692C000545EF50E0061715020076
:1050280013050536EFF0716111A803C725008D47F8
:10503800171502001305C535E306F7FEF2400561B2
:10504800828003C725009547E31AF7FE83D7A5009A
:105058000D6613060620914503C561842392F184E9
:10506800EF0010321715020013058533EFF0F15CDD
:10507800894723AAF18CD9B703C725008D47E31FB9
:10508800F7FA171502001305653269BF83C72500B3
:105098001147171502001305E5326380E704194725
:1050A8006396E70283C565001715020013054533AB
:1050B800EFF0714423AA018C85473000854513051C
:1050C80050302304F100EF60F1718DBF1547E3956F
:1050D800E7FE1715020013056532EFF01156E9BF18
:1050E80083C52500171502001305C532EFF0B1403E
:1050F800B1B7828001112305A100340021468545FE
:10510800014506CE23140100A305010002C6EFE005
:105118007FF8F24005618280B688AA8EBA862E830F
:10512800328E3E87639508020D661306D6A483C6A1
:1051380006006319CE0089476396F5008547354810
:10514800639DF60072869A8576856FF08FBC8547D9
:1051580001486394F8006FF06FC142858280411165
:105168009397050122C406C6C1872E8463DE070013
:1051780003C56184B12311C1D929A1673D8C22855A
:10518800B24022444101828093F7150081C713C4BD
:105198001500F5B793F7450099CF83C761841307C6
:1051A800401F81462146A14503D54184EF6031293E
:1051B80013444400E9B793F785009DC30147894626
:1051C8000946814503D54184EF70E115AA85171575
:1051D80002001305E517EFF011321344840045B7B8
:1051E80093F72500A1C7371700408327870C93C77B
:1051F80007012324F70C03C57184ED3D83C771842F
:10520800850793F7F70F71476360F7020145A3839A
:10521800F184CD351306007D894503C56184EF000F
:10522800301613442400A1BF9147CDB793F7050169
:1052380099CBF5360546C14503C56184EF00501486
:10524800134404012DBF93F705020144E38907F2D3
:105258009387418D984389476303F70237170040C6
:105268008327870C1306803E9305000293C7070126
:105278002324F70C03C56184EF00901009B7371792
:1052880000408327870C93E707012324F70CC5BD4B
:10529800011106CE22CC26CAB717004083C747049F
:1052A800170500001305E5EBEF00B0631384618474
:1052B80085442300A400700085451305503023065B
:1052C8009100EF60315217E6FF1F1306E683D545BC
:1052D80013056030EF60115117E6FF1F130646856E
:1052E800BD4513057030EF60F14F17160200130625
:1052F800A607D5450145EF50A07F8D477000914521
:10530800130570402305F10023049100A3059100C3
:1053180002C6A3040100EF5091153000854513051E
:105328000040EF50D1141306910085451305104035
:10533800EF50F1131306A100854513052040EF50E7
:1053480011131306B100854513055040EF50311273
:1053580099477000854505452306F100EFE00FF0F9
:10536800EFF0AF8A97D5FF1F9385857B1385C1839F
:10537800EFE01FD103450400854559258D4541457A
:10538800EFE0EF9285457D55EFE00F880345040077
:105398000546C145EF00C07E034504001306803E64
:1053A80093050002EF00C07DF2406244D2440561DB
:1053B80082804111014681451305004106C6EF5020
:1053C800110B03D54184EF60D173B240854723AAFE
:1053D800F18C03C5618405469305000241016F0005
:1053E800207A41111305800406C622C497B0FF1F16
:1053F800E7804035371400408327840A8D4513051C
:10540800002093E707202324F40AEFD0FFFFEFE002
:105418000FC38347440415479D8B6394E702854572
:1054280013050040EFD05FFE1305007D97B0FF1F06
:10543800E780807D8327440A93F7074099C3EFF0FC
:105448008FF31715020013052522EFF0111FEFF057
:105458008FBEEFF06FD1EF60516DEFE01FBC3717D3
:1054680000408327870C8D45414593E70701232496
:10547800F70CEFE0CF83293D97B0FF1FE780E07C72
:105488009387C18D23A0070023820700828093871A
:10549800C18D984383C7470023A2E18E2384F18EF0
:1054A80083C7818D638F07109385018F944193770C
:1054B800170013F6F600B397C70013D54600135626
:1054C80017003D89058A3316A600D18F13D58600AB
:1054D800135627003D89058A3316A600D18F13D5A8
:1054E800C600135637003D89058A3316A600D18FAA
:1054F80013D50601135647003D89058A3316A600C1
:10550800D18F13D54601135657003D89058A3316A6
:10551800A600D18F13D5860113566700058A3D89E9
:105528003316A600D18F13567700058AF182B31679
:10553800D600D58FD44113568700058A93F5F60017
:105548003316B600D18F93D5460013569700BD8900
:10555800058A3316B600D18F93D586001356A70057
:10556800BD89058A3316B600D18F93D5C600135668
:10557800B700BD89058A3316B600D18F93D50601C9
:105588001356C700BD89058A3316B600D18F93D547
:1055980046011356D700BD89058A3316B600D18F48
:1055A80093D586011356E700058ABD893D833316D6
:1055B800B600058BF1823317D700D18FD98F23928C
:1055C800F18E828085476308F50289476399F50063
:1055D800630CB6041336160009063285828099E5F5
:1055E8006300F6043336C0001506C5BF6300F60431
:1055F80015EA1146DDB789476398F500E30FB6FC55
:10560800133616000D06D1BF99E5630DF600333643
:10561800C0001906D9B76309F60009EA154675BF2F
:105628001D4665BF214655BF054645BF014675B7AE
:1056380023AC05FE1C4191E7010001000CC18280EA
:10564800BA8703A787FF6DFF23ACB7FE82801DC111
:105658008346E5FF1307F00F9147639EE60041116B
:1056680006C697D0FF1FE780408CB24081473E8531
:105678004101828095473E85828001E9014582800B
:105688000145B240224441018280956541119385CC
:1056980005D022C4C98D2A842105C2054205C181CD
:1056A800418106C697C0FF1FE780007B71D9FD576F
:1056B80023200500231285002303F5002105D1B717
:1056C80017F7FF1F130787071C43411122C426C27F
:1056D8004AC006C601440149BA8489E7A165D925AB
:1056E8001DC401A803C7E7FF631AA7020DCCA16573
:1056F800012E9840832784FF6319E40217F7FF1FE0
:10570800232EF702FD57232C04FE230FF4FE2285D7
:10571800B2402244924402494101828011E03E890C
:1057280083A787FF5DBF3E84E5BF232CF9FED9BF61
:10573800B1CD411122C406C62A8497F7FF1F83C73B
:1057480037002E856375F400894763E887000137C1
:105758000D45B24022444101828083A785FF99E725
:1057680003C7E5FF9307F00F6305F700CD3515452F
:10577800CDB7238F85FE17F5FF1F130525FC4D3D7B
:1057880022852244B240A16541019DAC1545828025
:1057980097F7FF1F23A407FA828097F7FF1F9387C5
:1057A80067FF9C4399E33E85828003D727006316F1
:1057B800B70003C70700E308A7FEDC47E5B7C9C180
:1057C800797122D406D626D24AD04ECE014441471A
:1057D800B3D78540858BA5C312053147229533057C
:1057E800E50297F7FF1F9387E7FE03A907008544A3
:1057F800B3948400C204C180BE892A990327090092
:1058080011C7032549002EC60297B2453147330414
:10581800E40283A709003E941C4489E72320090079
:1058280023220900B2502254A58D02599254F249FC
:105838002E85456182800504E31CE4F88144DDB7C8
:105848002E85828041111397050122C406C626C2FF
:105858004AC041872E84635E07009D3511C1C53B50
:10586800A1673D8C2285B2402244924402494101FD
:105878008280EDD9AA8701474146B356E440858A1C
:105888008DCE9207BA97B146B387D70297F6FF1F16
:10589800938646F403A906008544B394E400C20441
:1058A800C1803E9983270900032549008297232058
:1058B800090023220900258C75B70507E31FC7FADD
:1058C8008144D5BF97F7FF1F938707ED9C5341117C
:1058D80022C406C61384818499C782971C403E95CA
:1058E80023A4A18439A097F7FF1F938727EA9C4335
:1058F800EDF70840B74703009387D73F3305F50214
:10590800B7A72600938737ECB24022443E9523A4DC
:10591800A184410182807DC197F7FF1F938707E724
:105928009C43797122D426D24AD04ECE52CC56CA44
:105938005AC806D65EC63A8AB689328BAE8A2A8992
:10594800829797F7FF1F9387E7E89843BE8401443F
:10595800B146C147B30BD40233067701104251EA6E
:10596800C165938505F0414597C0FF1FE780C04E8C
:105978001DE597F7FF1F938727E29C5B2D4589C795
:105988001145814582972D45B250225492540259AF
:10599800F249624AD24A424BB24B4561828097F73C
:1059A800FF1F938727DF984329E397F7FF1F23A358
:1059B800A7DE230005009C400547331787002326F0
:1059C8000500232465012311E50023224501DE9704
:1059D80023A0270123A2570123A447010145E385FA
:1059E80009FA238089004DB73E875C47F5FF48C711
:1059F800C9B70504E310F4F6214579B70945828053
:105A080097F7FF1F83C7D7D36371F50217F7FF1FF7
:105A1800130707D89317150008433E9583570500C9
:105A2800DD8D2310B500014582800D45828097F7F2
:105A3800FF1F83C7F7D06373F50217F7FF1F13071C
:105A480027D593171500084393C5F5FF3E9583574F
:105A58000500FD8D2310B500014582800D4582802B
:105A6800130705FF1377F70FFD4763E9E70AB14608
:105A7800B306D50297F7FF1F9387C7D59843894781
:105A88003697184349CF011122CC4EC60544935985
:105A980045003D893315A40013140501418026CA29
:105AA8004E85AE84A2854AC806CEC5392A89814763
:105AB80031CDA2854E85A53F97F7FF1F938707CD68
:105AC8009C43829797F7FF1F83D7C7D133879702E5
